:100000000C94630A0C94940A0C94940A0C94940A29
:100010000C94940A0C94940A0C94940A0C94940AE8
:100020000C94940A0C94940A0C94940A0C94940AD8
:100030000C94940A0C94940A0C94940A0C94940AC8
:100040000C94940A0C9462760C94940A0C94940A7E
:100050000C94940A0C94940A0C94068E0C94DB8FE6
:100060000C94940A0C9477140C94940A0C94940AAB
:100070000C94940A0C94940A0C94940A0C94940A88
:100080000C94940A0C94940A0C94940A0C94940A78
:100090000C94940A0C94940A0C94940A0C94940A68
:1000A0000C94940A0C94940A0C94940A0C94940A58
:1000B0000C94940A0C94940A0C94940A0C94940A48
:1000C0000C94940A0C94940A0C94940A0C9404537F
:1000D0000C94940A0C94940A0C9498530C94940ADB
:1000E0000C94940A748E818E9D8EAA8EC48ED18EAD
:1000F000EB8EED8EEF8EFB8EFE90039108911291A8
:100100001C91959126912E91369140914A9154914E
:1001100063916D919591779181918B91B691B99100
:10012000A891AC91B291F091BD91C191C791CB9141
:10013000CF91D591D991DD91F091E391E791EB9138
:10014000084AD73B3BCE016E84BCBFFDC12F3D6C3E
:1001500074319ABD56833DDA3D00C77F11BED9E4A4
:10016000BB4C3E916BAAAABE000000803F05A84C84
:10017000CDB2D44EB93836A9020C50B99186880850
:100180003CA6AAAA2ABE000000803F004D383420B9
:10019000582059205A2045004D3234004D3233202A
:1001A0002573006175746F25692E67006572726F23
:1001B000722077726974696E6720746F2066696C4B
:1001C00065004E6F74205344207072696E74696EBE
:1001D00067002F005344207072696E74696E672047
:1001E0006279746520002E0044656C6574696F6ED9
:1001F000206661696C65642C2046696C653A200054
:1002000046696C652064656C657465643A002E000F
:100210006F70656E206661696C65642C2046696C40
:10022000653A200057726974696E6720746F2066A2
:10023000696C653A20002E006F70656E20666169FA
:100240006C65642C2046696C653A20002E006F7046
:10025000656E206661696C65642C2046696C653A40
:10026000200046696C652073656C65637465640085
:100270002053697A653A200046696C65206F706585
:100280006E65643A20002E006F70656E20666169AD
:100290006C65642C2046696C653A200053442063E9
:1002A000617264206F6B006F70656E526F6F7420A7
:1002B0006661696C656400766F6C756D652E696E3C
:1002C0006974206661696C6564006563686F3A00F3
:1002D0004572726F723A0048617264636F6465645C
:1002E0002044656661756C742053657474696E672B
:1002F00073204C6F61646564006563686F3A0050F9
:1003000072696E7465722073746F707065642064B6
:10031000756520746F206572726F72732E20466946
:100320007820746865206572726F7220616E642037
:10033000757365204D39393920746F207265737477
:100340006172742E202854656D70657261747572C7
:10035000652069732072657365742E20536574205F
:100360006974206166746572207265737461727459
:10037000696E6729005072696E7465722068616CDD
:100380007465642E206B696C6C28292063616C6C29
:10039000656421006F6B00526573656E643A2000DE
:1003A0002200556E6B6E6F776E20636F6D6D616EA0
:1003B000643A2022002200556E6B6E6F776E2063C8
:1003C0006F6D6D616E643A202200312E312E302E19
:1003D000313300486F74656E64206F6666736574B0
:1003E000733A0045313A200045303A20007A5F6D7B
:1003F00061783A20007A5F6D696E3A2000795F6D0E
:1004000061783A2000795F6D696E3A2000785F6DFF
:1004100061783A2000785F6D696E3A20005A3A00A0
:10042000593A0020436F756E7420583A2000453ABF
:10043000005A3A00593A00583A004649524D57413D
:1004400052455F4E414D453A4D61726C696E205682
:10045000313B20537072696E7465722F6772626CE3
:10046000206D617368757020666F722067656E36E7
:10047000204649524D574152455F55524C3A687497
:1004800074703A2F2F7777772E6D656E64656C2DBB
:1004900070617274732E636F6D2050524F544F43CE
:1004A0004F4C5F56455253494F4E3A312E30204DF6
:1004B000414348494E455F545950453A4D656E6435
:1004C000656C2045585452554445525F434F554E34
:1004D000543A320A0020423A0020453A00543A0089
:1004E00020573A0020453A00543A002042403A0052
:1004F00020403A00202F0020423A00202F006F6B4E
:1005000020543A002569206D696E2C2025692073DE
:10051000656300456E642066696C65206C69737460
:1005200000426567696E2066696C65206C6973744A
:10053000002200556E6B6E6F776E20636F6D6D617C
:100540006E643A2022005072696E74657220686190
:100550006C7465642E206B696C6C28292063616C57
:100560006C65642100256920686F757273202569A8
:10057000206D696E7574657300446F6E65207072CE
:10058000696E74696E672066696C65000A004920AF
:100590006861766520726563656976656420746854
:1005A0006973206C65747465723A20005072696ECC
:1005B0007465722073746F70706564206475652053
:1005C000746F206572726F72732E20466978207482
:1005D0006865206572726F7220616E642075736544
:1005E000204D39393920746F2072657374617274CB
:1005F0002E202854656D706572617475726520696E
:10060000732072657365742E20536574206974209D
:1006100061667465722072657374617274696E6765
:1006200029006F6B004E6F204C696E65204E756D12
:10063000626572207769746820636865636B73759F
:100640006D2C204C617374204C696E653A20004E0D
:100650006F20436865636B73756D207769746820DC
:100660006C696E65206E756D6265722C204C6173CD
:1006700074204C696E653A2000636865636B73751E
:100680006D206D69736D617463682C204C617374A7
:10069000204C696E653A20004C696E65204E756D80
:1006A000626572206973206E6F74204C61737420D0
:1006B0004C696E65204E756D6265722B312C204C35
:1006C000617374204C696E653A20004D3131300001
:1006D0000A00492068617665207265636569766500
:1006E000642074686973206C65747465723A2000C4
:1006F0006F6B00446F6E6520736176696E6720666C
:10070000696C652E006F6B004D3239002020506CF3
:10071000616E6E6572427566666572427974657364
:100720003A20002046726565204D656D6F72793AFA
:100730002000312E312E302E3133000A2056455202
:1007400053494F4E203A200041707220203220320F
:1007500030313500436F6D70696C65643A20002854
:100760004D4D432C205A696D5F426F6172645F7614
:10077000362900207C20417574686F723A20004150
:10078000707220203220323031352031323A323707
:100790003A323200204C6173742055706461746584
:1007A000643A2000312E312E302E3133004D6172EB
:1007B0006C696E200020536F6674776172652052F9
:1007C0006573657400205761746368646F672052B5
:1007D00065736574002042726F776E206F757420A8
:1007E0005265736574002045787465726E616C2083
:1007F000526573657400506F77657255700073743D
:10080000617274002200656E717565696E672022E1
:10081000002200656E717565696E67202200FFFF1A
:10082000FF00002041000020410000A04000001611
:1008300043000016430000164300000000000000C3
:1008400000000000000000164300001643000016E0
:100850004300000000000000000000000065636825
:100860006F3A004572726F723A0020636F6C6420B9
:10087000657874727573696F6E2070726576656ED7
:10088000746564006563686F3A007C3C3E5E2B3D96
:100890003F2F5B5D3B2C2A225C0020453A00205A0A
:1008A0003A0020593A0020583A00656E6473746F1C
:1008B0007073206869743A200024F4D43050C38ED9
:1008C00020C2A24017828B7011127A910D816CD9CF
:1008D0000AA861E108C7586607615143061E4B5DCF
:1008E00005C145A7041A411104093D980371393126
:1008F000034036DB0265339102D4305402802E1D52
:1009000002632CEE01752AC501B028A001102781D1
:10091000018F2564012B244B01E0223401AC211FFF
:10092000018D200D01801FFC00841EED00971DDF4E
:1009300000B81CD200E61BC600201BBC00641AB223
:1009400000B219A8000A19A0006A189900D11791DD
:100950000040178B00B516840031167E00B3157960
:10096000003A157300C7146F0058146A00EE13663E
:10097000008813630025135E00C7125B006C1257DA
:100980000015125400C111510070114F0021114B7C
:1009900000D61049008D1047004610440002104256
:1009A00000C00F4000800F3E00420F3C00060F3B8E
:1009B00000CB0E3800930E37005C0E3500270E3446
:1009C00000F30D3200C10D3100900D3000600D2E8E
:1009D00000320D2D00050D2C00D90C2B00AE0C297A
:1009E00000850C29005C0C2700350C27000E0C2616
:1009F00000E80B2400C40B2400A00B23007D0B2374
:100A0000005A0B2100390B2100180B2000F80A1F97
:100A100000D90A1E00BB0A1E009D0A1D00800A1D87
:100A200000630A1C00470A1B002C0A1B00110A1A4B
:100A300000F7091A00DD091900C4091900AB0919EA
:100A400000920917007B091800630917004C09166A
:100A50000036091600200916000A091500F50815C8
:100A600000E0081400CC081400B8081400A408140E
:100A700000900813007D0812006B0813005808123C
:100A80000046081200340811002308110012081152
:100A90000001081100F0071000E0071000D0071057
:100AA00000C0071000B0070F00A107100091070E4B
:100AB0000083070F0074070F0065070E0057070E2D
:100AC0000049070E003B070D002E070E0020070D02
:100AD0000013070D0006070D00F9060C00ED060DCA
:100AE00000E0060C00D4060C00C8060C00BC060C86
:100AF00000B0060C00A4060B0099060C008D060B36
:100B00000082060B0077060B006C060B0061060ADC
:100B10000057060B004C060A0042060A0038060A77
:100B2000002E060A0024060A001A060A001006090A
:100B30000007060A00FD050900F4050900EB050998
:100B400000E2050900D9050900D0050900C705091B
:100B500000BE050900B5050800AD050800A505099A
:100B6000009C050800940508008C05080084050811
:100B7000007C050800740508006C05070065050881
:100B8000005D050700560508004E050700470507EC
:100B9000004005080038050700310507002A050751
:100BA00000230507001C050600160507000F0507B2
:100BB000000805060002050700FB040600F504070F
:100BC00000EE040600E8040600E2040700DB040669
:100BD00000D5040600CF040600C9040600C30406BD
:100BE00000BD040600B7040600B1040500AC04060D
:100BF00000A6040600A00405009B04060095040559
:100C000000900406008A040500850405008004069F
:100C1000007A04050075040500700405006B0405E6
:100C20000066040500610405005C04050057040526
:100C300000520405004D0405004804050043040566
:100C4000003E0404003A04050035040500300404A5
:100C5000002C04050027040400230405001E0404DE
:100C6000001A04040016040500110404000D040415
:100C700000090405000404040000040400FC03044B
:100C800000F8030400F4030400F0030400EC030480
:100C900000E8030400E4030400E0030400DC0304B0
:100CA00000D8030400D4030400D0030400CC0304E0
:100CB00000C8030300C503030024F404D9201BC4A7
:100CC0000C5C0E9804C4095F0265077101F405F914
:100CD00000FB04B30048048700C1036900580355B2
:100CE0000003034500BE023A008402310053022A89
:100CF000002902250004022000E4011C00C801199B
:100D000000AF011700980114008401130071011055
:100D1000006101100051010E0043010D0036010B6E
:100D2000002B010B0020010B00150109000C01092B
:100D30000003010800FB000800F3000800EB0007B7
:100D400000E4000600DE000600D8000600D200061F
:100D500000CC000500C7000500C2000500BD00046E
:100D600000B9000400B5000400B1000400AD0004A7
:100D700000A9000400A5000300A20003009F0004D6
:100D8000009B0003009800030095000200930003FD
:100D900000900003008D0002008B00030088000219
:100DA000008600020084000300810002007F000230
:100DB000007D0002007B0002007900020077000144
:100DC000007600020074000200720001007100024F
:100DD000006F0002006D0001006C0002006A00015B
:100DE0000069000200670001006600010065000163
:100DF0000064000200620001006100010060000167
:100E0000005F0002005D0001005C0001005B00016A
:100E1000005A00010059000100580001005700016C
:100E2000005600010055000100540001005300006D
:100E30000053000100520001005100010050000168
:100E4000004F0001004E0000004E0001004D000167
:100E5000004C0001004B0000004B0001004A000163
:100E6000004900010048000000480001004700015F
:100E7000004600000046000100450000004500015A
:100E80000044000100430000004300010042000054
:100E9000004200010041000000410001004000014B
:100EA000003F0000003F0001003E0000003E000146
:100EB000003D0000003D0001003C0000003C00003F
:100EC000003C0001003B0000003B0001003A000034
:100ED000003A00010039000000390001003800002C
:100EE0000038000000380001003700000037000122
:100EF000003600000036000000360001003500001A
:100F0000003500000035000100340000003400000E
:100F10000034000100330000003300000033000102
:100F200000320000003200000032000100310000F9
:100F300000310000003100010030000000300000EE
:100F400000300001002F0000002F0000002F0000E3
:100F5000002F0001002E0000002E0000002E0001D6
:100F6000002D0000002D0000002D0000002D0001CC
:100F7000002C0000002C0000002C0000002C0001C0
:100F8000002B0000002B0000002B0000002B0001B4
:100F9000002A0000002A0000002A0000002A0001A8
:100FA000002900000029000000290000002900009D
:100FB000002900010028000000280000002800008F
:100FC0000028000000280001002700000027000082
:100FD0000027000000270000002700010026000075
:100FE0000026000000260000002600000026000168
:100FF000002500000025000000250000002500005D
:10100000002500000025000100240000002400004D
:101010000024000000240000002400010023000040
:101020000023000000230000002300000023000034
:101030000023000000230001002200000022000025
:101040000022000000220000002200000022000117
:10105000002100000021000000210000002100000C
:1010600000210000002100000021000100200000FC
:1010700000200000002000000020000000200000F0
:10108000002000000020000000200001001F0000E0
:10109000001F0000001F0000001F0000001F0000D4
:1010A000001F0000001F0001001E0000001E0000C5
:1010B000001E0000001E0000006563686F3A0054C7
:1010C000656D7065726174757265206865617465BF
:1010D0006420626564207377697463686564206F57
:1010E00066662E204D415854454D502074726967F4
:1010F0006765726564202121003A20457874727515
:10110000646572207377697463686564206F6666CE
:101110002E204D494E54454D5020747269676765C5
:101120007265642021003A20457874727564657296
:10113000207377697463686564206F66662E204D3E
:10114000415854454D5020747269676765726564F3
:10115000202100202D20496E76616C69642065781D
:10116000747275646572206E756D626572202100FF
:10117000504944204175746F74756E652066696EC0
:101180006973686564202120506C61636520746810
:1011900065204B702C204B6920616E64204B6420CD
:1011A000636F6E7374616E747320696E207468650A
:1011B00020636F6E66696775726174696F6E2E6801
:1011C00000504944204175746F74756E65206661E6
:1011D000696C6564212074696D656F7574002040C9
:1011E0003A006F6B20543A006F6B20423A0050492E
:1011F00044204175746F74756E65206661696C6515
:1012000064212054656D7065726174757265207417
:101210006F206869676800204B643A2000204B69A2
:101220003A2000204B703A200020436C61736963C0
:101230002050494420002054753A2000204B753A34
:101240002000206D61783A2000206D696E3A200000
:1012500020643A200020626961733A20004572726E
:101260006F723A001000B203A0005D01B000590196
:10127000C0005401D0004F01E0004A01F0004501D8
:101280000001400110013B01200136014001310104
:1012900050012C017001270180012201A0011D01D4
:1012A000C0011801F001130110020E0140020901F2
:1012B00070020401B002FF00E002FA002003F50012
:1012C0007003F000C003EB001004E6007004E100BE
:1012D000E004DC005005D700E005D2007006CD0028
:1012E0001007C800C007C3008008BE005009B9003D
:1012F000400AB400500BAF00600CAA00A00DA5007E
:10130000000FA00070109B0000129600C013910007
:1013100090158C008017870090198200C01B7D00FB
:10132000001E780050207300A0226E001025690076
:1013300070276400C0295F00102C5A00402E550011
:101340005030500050324B0020344600C035410030
:1013500040373C0090383700C0393200D03A2D0079
:10136000B03B2800703C2300203D1E00A03D19002A
:10137000203E1400803E0F00D03E0A00103F0500C2
:1013800000000A0B02090C0D0E08070304010000FF
:10139000000000000000000000000000000000004D
:1013A000000000000000000000000000121110000A
:1013B000000000000000000000000000000000002D
:1013C000000000000000010210202008081020404A
:1013D00010204080020102010804020101020408F9
:1013E0001020408080402010080402018004020187
:1013F00080402010080402010804020101020408D0
:1014000010204080010204081020408005050505D9
:10141000070508080808020202020A0A080804046C
:10142000040401010101010101010303030303039A
:101430000303040707070C0C0C0C0C0C0C0C020229
:10144000020206060606060606060B0B0B0B0B0B26
:101450000B0B00002200250028002B002E0031007D
:10146000340002010000050108010B010000210009
:10147000240027002A002D00300033000101000065
:10148000040107010A014E414E494E495459494E43
:1014900046CDCCCC3D0AD7233C17B7D13877CC2BDF
:1014A000329595E6241FB14F0A000020410000C884
:1014B0004200401C4620BCBE4CCA1B0E5AAEC59D05
:1014C0007400EC52F05211241FBECFEFD1E2DEBF08
:1014D000CDBF00E00CBF18E0A0E0B2E0ECE8FBE319
:1014E00001E00BBF02C007900D92A232B107D9F7FD
:1014F00021E1A2E2B8E001C01D92A23EB207E1F7ED
:1015000014E1C4ECD4E100E006C022970109FE0119
:101510000BBF0E948197C23CD10780E00807A9F762
:101520000E9460920C94B59D0C9400000F931F9341
:10153000CF93DF93EC018B0141E00E94277481116E
:1015400009C040E0B801CE01DF91CF911F910F910A
:101550000C94277481E0DF91CF911F910F91089532
:10156000FC01148217821382128287EC97E0918328
:101570008083089527EC37E0FC01318320832781A5
:10158000222319F004960C943F6C08950F931F9337
:10159000CF93DF93EC018F96E3DFCE01805B9F4F0B
:1015A000DFDFCE0181599F4FDBDFCE0182579F4F96
:1015B000D7DFFE01E355FF4F89E181831482359621
:1015C000178ACE0180539F4FCBDFFE01E151FF4FC1
:1015D0001082118212821382389610821182128236
:1015E00013821A821B82188219828E010D501F4F9E
:1015F000F8011082118212821382389681E0808372
:101600001EA61DA60E94259068577C4E8F4F9F4FA7
:10161000F8016083718382839383DF91CF911F915F
:101620000F910895FC0120E03EE2DB014C91403235
:1016300041F0283011F430833196DB014C91408326
:1016400031962F5F6F5F7F4F2B3079F710820895AF
:101650003F924F925F926F927F928F929F92AF9242
:10166000BF92CF92DF92EF92FF920F931F93CF938F
:10167000DF93CDB7DEB7C758D1090FB6F894DEBFF8
:101680000FBECDBF8C016B017A01312C84E0E80ED6
:10169000F11C2801E1E14E0E511C5801FCEFAF0E88
:1016A000B11C48018EEF880E911C80E4682E712CCD
:1016B0006C0E7D1EE4E06E0E711CA201BE016F5F18
:1016C0007F4FC7010E94A96A18160CF021C12C8512
:1016D000322F3871303109F09CC0F5018081918141
:1016E0000197029708F495C0BE016F5F7F4FCE014E
:1016F00087589F4F97DFA0961FAEA097F601808175
:10170000811107C066EF72E0CE01815A9F4F0E949F
:10171000A09AB601CE01815A9F4F0E94A09ABE01A5
:1017200067587F4FCE01815A9F4F0E94A09A66EF63
:1017300072E0CE01815A9F4F0E94A09ACE01805C38
:101740009F4F0EDF21E0AE0147585F4FB701C30145
:101750000E94366E811139C0F50180819181892BFB
:10176000A1F5EAECF2E08491882341F09091C00069
:1017700095FFFCCF8093C6003196F5CFE8EFF2E0FD
:101780008191882339F09091C00095FFFCCF809320
:10179000C600F6CF8091C00085FFFCCF8AE0809321
:1017A000C600FE01E758FF4F8191882339F09091E0
:1017B000C00095FFFCCF8093C600F6CF8091C0009B
:1017C00085FFFCCF8AE08093C6008BE1FE01EC5BD5
:1017D000FF4FDE01959601900D928A95E1F72496D0
:1017E0008EAD9FAD24979CA38BA387EC97E09AA323
:1017F00089A3AE014F5D5F4FBE01615A7F4FC801A3
:1018000027DFCE018196B6DECE01805C9F4FB2DE2F
:1018100054CF8981882309F47BC0853E09F44DCFDC
:101820008E3209F44ACF8F3509F447CFF801818908
:10183000882331F08E3209F440CF8F3509F43DCF43
:1018400023FD3BCF81E0303109F080E0F80184A72F
:10185000811108C08985873409F02FCF8A858E379A
:1018600009F42BCF98012C5F3F4FBE016F5F7F4F74
:10187000C901CA57DF4F2883C658D040C957DF4F28
:101880003883C758D040CEDEF50180819181CA5798
:10189000DF4F2881C658D040C957DF4F3881C7581D
:1018A000D0400097F1F4F6018191882339F09091AE
:1018B000C00095FFFCCF8093C600F6CFF90181915F
:1018C000882339F09091C00095FFFCCF8093C6002B
:1018D000F6CF8091C00085FFFCCF8AE08093C600E0
:1018E000ECCE8130910539F4F4018081918101962B
:1018F00091838083E2CE029709F0DFCE232D30E082
:10190000F401808191812817390711F03394D5CEE5
:10191000C957DF4F0FB6F894DEBF0FBECDBFDF91C2
:10192000CF911F910F91FF90EF90DF90CF90BF90DC
:10193000AF909F908F907F906F905F904F903F906F
:101940000895EF92FF920F931F93CF93DF93CDB73C
:10195000DEB76F970FB6F894DEBF0FBECDBF8C0118
:10196000FC01E450FF4F118210827C0183E3E80EFA
:10197000F11C40E050E0BA01C7010E945C6B8BE1B2
:10198000F701DE01159601900D928A95E1F7F801B5
:1019900081A992A99C838B8387EC97E09A838983A2
:1019A000AE014F5F5F4F61EA76E0C80151DECE01C4
:1019B0000196E0DD6F960FB6F894DEBF0FBECDBF87
:1019C000DF91CF911F910F91FF90EF9008952BE140
:1019D000FB013496DC01149601900D922A95E1F7F3
:1019E000FB0122813381FC01338322830895EF922E
:1019F000FF920F931F93CF93DF93EC011B828EA96D
:101A0000882321F0CE01C3960E943F6C7E018DEAAF
:101A1000E80EF11C45E360E0C7010E94F8668823E8
:101A200009F470C08E010E541F4FB701C8017EDD4E
:101A300081111FC0E0EDF2E08491882341F0909184
:101A4000C00095FFFCCF8093C6003196F5CFE7EB41
:101A5000F2E08491882341F09091C00095FFFCCF83
:101A60008093C6003196F5CF8091C00085FFFCCFF2
:101A700046C0B801CE01C3960E944D6981111FC0B6
:101A8000E0EDF2E08491882341F09091C00095FF51
:101A9000FCCF8093C6003196F5CFE7EAF2E084915F
:101AA000882341F09091C00095FFFCCF8093C60041
:101AB0003196F5CF8091C00085FFFCCF20C081E03A
:101AC0008B83EAECF2E08491882341F09091C0008E
:101AD00095FFFCCF8093C6003196F5CFECE9F2E09C
:101AE0008491882341F09091C00095FFFCCF8093B2
:101AF000C6003196F5CF8091C00085FFFCCF8AE00B
:101B00008093C6008E01015D1F4FB801CE01805B3E
:101B10009F4F5DDFC25BDF4F19830883DF91CF9159
:101B20001F910F91FF90EF900895FC011282138294
:101B30000895FC012381222311F021E022830895DE
:101B4000FC0122812111128208952F923F924F921F
:101B50005F926F927F928F929F92AF92BF92CF923D
:101B6000DF92EF92FF920F931F93CF93DF93CDB746
:101B7000DEB7AD970FB6F894DEBF0FBECDBF7C01C8
:101B80006B014DA7FC018381882309F4A0C14701A3
:101B9000F4ED8F0E911CC4010E943F6CF70112827C
:101BA000CE0101965C01DCDC17019EE4290E311C9C
:101BB000C7018F96F10191838083F60180818F3276
:101BC00009F07FC06FE270E0C6010E94AB9A8C0101
:101BD0000F5F1F4F09F47BC06FE270E0C8010E94E5
:101BE000AB9A2C01009709F473C00817190708F085
:101BF0006FC03C01601A710AA301B801CE01809642
:101C00000E94CB9AE0E2F0E0EC0FFD1FE60DF71D1D
:101C10001082FE01B0968191882339F09091C00026
:101C200095FFFCCF8093C600F6CF8091C00085FF62
:101C3000FCCFFAE0F093C600F1016081718161157B
:101C4000710519F06C5F7F4F02C060E070E021E029
:101C5000AE01405E5F4FCE0105960E94366E811147
:101C60002BC0E8E8F2E08491882341F09091C00015
:101C700095FFFCCF8093C6003196F5CFFE01B0965C
:101C80008191882339F09091C00095FFFCCF80931B
:101C9000C600F6CFE6E8F2E08491882341F0909107
:101CA000C00095FFFCCF8093C6003196F5CF8091A0
:101CB000C00085FFFCCF06C1F101B182A082820184
:101CC00087CFC701805B9F4FF1019183808386019D
:101CD000FDA5FF2309F49BC0F101608171816115AD
:101CE000710519F06C5F7F4F02C060E070E021E089
:101CF000A801C4010E94366E882309F45EC0F40175
:101D000081899289A389B489F701E151FF4F8083CA
:101D10009183A283B383E8E7F2E08491D701A151D4
:101D2000BF4F882349F09091C00095FFFCCF80936E
:101D3000C60031968491F5CFF8018191882339F05E
:101D40009091C00095FFFCCF8093C600F6CFE0E7EE
:101D5000F2E08491882341F09091C00095FFFCCF80
:101D60008093C6003196F5CF4D915D916D917C9138
:101D70002AE030E082E298E03BD78091C00085FF06
:101D8000FCCF8AE08093C600F701E950FF4F108234
:101D9000118212821382E2E6F2E08491882341F0FC
:101DA0009091C00095FFFCCF8093C6003196F5CF8F
:101DB0008091C00085FFFCCF85C0EEE4F2E0849105
:101DC000882341F09091C00095FFFCCF8093C6001E
:101DD0003196F5CFF8018191882339F09091C000B8
:101DE00095FFFCCF8093C600F6CFECE4F2E084913F
:101DF000882341F09091C00095FFFCCF8093C600EE
:101E00003196F5CF8091C00085FFFCCF5BC0F1011A
:101E1000608171816115710519F06C5F7F4F02C09F
:101E200060E070E026E5A801C4010E94366E8111D1
:101E30002AC0E8E3F2E08491882341F09091C00049
:101E400095FFFCCF8093C6003196F5CFF8018191C4
:101E5000882339F09091C00095FFFCCF8093C60095
:101E6000F6CFE6E3F2E08491882341F09091C00040
:101E700095FFFCCF8093C6003196F5CF8091C000CE
:101E800085FFFCCF1FC081E0F7018083E4E2F2E030
:101E90008491882341F09091C00095FFFCCF8093FE
:101EA000C6003196F5CFF6018191882339F09091E3
:101EB000C00095FFFCCF8093C600F6CF8091C00094
:101EC00085FFFCCF8AE08093C600C50153DBAD9649
:101ED0000FB6F894DEBF0FBECDBFDF91CF911F913B
:101EE0000F91FF90EF90DF90CF90BF90AF909F90B9
:101EF0008F907F906F905F904F903F902F900895BC
:101F000021E0FC01218340E020CE3F924F925F927E
:101F10006F927F928F929F92AF92BF92CF92DF92F9
:101F2000EF92FF920F931F93CF93DF93CDB7DEB75E
:101F3000AC970FB6F894DEBF0FBECDBF7C015B013E
:101F4000FC018381882309F400C1C7018C529F4F93
:101F50000E943F6CF7011282CE0101966C0100DBFA
:101F600027019EE4490E511CC7018F96F20191830F
:101F70008083F50180818F3209F084C06FE270E0C8
:101F8000C5010E94AB9A8C010F5F1F4F9AE0392E5A
:101F90000115110509F47CC06FE270E0C8010E94D0
:101FA000AB9A4C01009709F474C00817190708F0A0
:101FB00070C03C01601A710AA301B801CE0180967D
:101FC0000E94CB9AE0E2F0E0EC0FFD1FE60DF71D5A
:101FD0001082FE01B0968191882339F09091C00063
:101FE00095FFFCCF8093C600F6CF8091C00085FF9F
:101FF000FCCF3092C600F2016081718161157105DC
:1020000019F06C5F7F4F02C060E070E021E0AE012C
:10201000405E5F4FCE0105960E94366E81112BC047
:10202000E0E1F2E08491882341F09091C00095FFB7
:10203000FCCF8093C6003196F5CFFE01B09681911A
:10204000882339F09091C00095FFFCCF8093C600A3
:10205000F6CFEEE0F2E08491882341F09091C00049
:1020600095FFFCCF8093C6003196F5CF8091C000DC
:1020700085FFFCCF65C0F201D182C08284010F5F71
:102080001F4F86CFC701805B9F4FF20191838083F2
:102090008501F20180819181009711F0049602C0C0
:1020A00080E090E0B8010E940C6F882301F1E0E02D
:1020B000F2E08491882341F09091C00095FFFCCF1D
:1020C0008093C6003196F5CFF8018191882339F0CD
:1020D0009091C00095FFFCCF8093C600F6CFF7012A
:1020E000E950FF4F10821182128213822CC0E8EE59
:1020F000F1E08491882341F09091C00095FFFCCFDE
:102100008093C6003196F5CFF8018191882339F08C
:102110009091C00095FFFCCF8093C600F6CFE6EE0D
:10212000F1E08491882341F09091C00095FFFCCFAD
:102130008093C6003196F5CF8091C00085FFFCCF1B
:102140008AE08093C600C60115DAAC960FB6F89403
:10215000DEBF0FBECDBFDF91CF911F910F91FF90DA
:10216000EF90DF90CF90BF90AF909F908F907F9037
:102170006F905F904F903F900895CF93DF93EC0165
:102180008B818823B1F1E4EDF1E08491882341F063
:102190009091C00095FFFCCF8093C6003196F5CF9B
:1021A000FE01E950FF4F40815181628173812AE035
:1021B00030E082E298E01CD5E2EDF1E084918823E2
:1021C00041F09091C00095FFFCCF8093C6003196FE
:1021D000F5CFC151DF4F488159816A817B812AE067
:1021E00030E082E298E004D58091C00085FFFCCF0A
:1021F00011C0E2ECF1E08491882341F09091C0009D
:1022000095FFFCCF8093C6003196F5CF8091C0003A
:1022100085FFFCCF8AE08093C600DF91CF910895BF
:10222000AF92BF92CF92DF92EF92FF920F931F93E4
:10223000CF93DF935C01EB01FB0101900020E9F7F4
:102240008F0101501109061B170B6C01F4EDCF0E25
:10225000D11CF60110826EE470E0CE010E94AB9AB0
:102260007C01009729F4F8013197EC0FFD1F0DC098
:1022700060E270E00E94AB9AEC0121966AE270E0A5
:10228000C7010E94AB9AFC0131978DE081838AE0FF
:1022900082831382BE01C50180539F4F0E94D0707C
:1022A000F6018081882309F1E0EDF2E08491882332
:1022B00041F09091C00095FFFCCF8093C60031960D
:1022C000F5CFECEAF1E08491882341F09091C000D1
:1022D00095FFFCCF8093C6003196F5CF8091C0006A
:1022E00085FFFCCF8AE08093C600DF91CF911F91DC
:1022F0000F91FF90EF90DF90CF90BF90AF90089537
:102300002F923F924F925F926F927F928F929F9205
:10231000AF92BF92CF92DF92EF92FF920F931F93F3
:10232000CF93DF93CDB7DEB7CC55D1090FB6F89474
:10233000DEBF0FBECDBF8C0185509F4F5C01662371
:1023400039F0F5011082F801838181111DC015C09B
:10235000FC018081882309F4ADC0F801ED50FF4FE6
:10236000C080D180E280F3800E942590C616D706F7
:10237000E806F90608F49EC0E4CFC80138DBF8018E
:102380008381882309F496C0F80186A58F9385A5DB
:102390008F9383EA91E09F938F937E01FFE3EF0E8B
:1023A000F11CFF92EF920E94DA9A0F900F900F901B
:1023B0000F900F900F90B12CF70101900020E9F7DA
:1023C0003197EE19FF09BE1684F46701CB0CD11CBE
:1023D000B7FCDA94F6018081992787FD90950E94D9
:1023E000499AF6018083B394E7CF4801F3E38F0E57
:1023F000911C40E050E0BA01C4010E945C6B512C7A
:10240000CE0101966C012CE9622E21E0722E5E0154
:1024100091E2A90EB11C40E050E0B601C4010E9457
:10242000A96A1816DCF5412CF60101900020E9F7A5
:102430003197EC19FD094E1674F41601240C311C69
:1024400047FC3A94F101808190E00E94499AF101A1
:1024500080834394E9CF8A858E37E9F245E050E0E6
:10246000B701C6010E94BD9A892BA9F6FF92EF928F
:102470007F926F92BF92AF920E94DA9AC5010E943A
:10248000691C88E991E00E94DC1C0F900F900F906E
:102490000F900F900F9055245394BDCF511004C04E
:1024A0008FEF9FEFF80104C0F80185A596A501966E
:1024B00096A785A7C45ADF4F0FB6F894DEBF0FBEAC
:1024C000CDBFDF91CF911F910F91FF90EF90DF90E3
:1024D000CF90BF90AF909F908F907F906F905F90C4
:1024E0004F903F902F9008950F931F93CF93DF93BA
:1024F000EC018C010C521F4FC8010E94F56BC80102
:102500000E943F6C18821982DF91CF911F910F9129
:102510000895CF93DF93EC010E941F7F0E94967F66
:10252000CE018C529F4F0E943F6C1A828CE891E042
:102530000E94DC1C8091680E8823F9F01092680ECE
:10254000C091D00AD0E0CC0FDD1FC153DE4E6881B0
:102550007981882777FD8095982F0E941294209189
:10256000890230918A0240918B0250918C020E9424
:102570007395181614F419821882DF91CF9108957B
:10258000EF92FF920F931F93CF93DF931F92CDB7DC
:10259000DEB78C017B01460FF70161917F01F801E5
:1025A0008081918149830E94FE9CF8018081918104
:1025B00001969183808349814E11EECF0F90DF9178
:1025C000CF911F910F91FF90EF900895EF92FF929E
:1025D0000F931F93CF93DF931F92CDB7DEB78C017C
:1025E0007B01460FF8018081918149830E94F69C0E
:1025F000F70181937F01F801808191810196918398
:10260000808349814E11EECF0F90DF91CF911F91C2
:102610000F91FF90EF900895AF92BF92CF92DF920B
:10262000EF92FF920F931F93CF93DF93CDB7DEB757
:10263000E0970FB6F894DEBF0FBECDBF80E1EBEBA5
:10264000F2E0DE01919601900D928A95E1F780E12A
:10265000EBECF2E0DE01519601900D928A95E1F7E4
:1026600080E1EBEDF2E0DE01119601900D928A958A
:10267000E1F76E0181E2C80ED11C09EC1EE07E017B
:10268000E1E1EE0EF11C69ED7EE0AE014F5F5F4FC0
:1026900099EBA92E9EE0B92E20E030E0F601819161
:1026A0009191A191B1916F01F80181939193A193BF
:1026B000B1938F01F70181919191A191B1917F0126
:1026C000FB0181939193A193B193BF01FA01819191
:1026D0009191A191B191AF01F50181939193A19352
:1026E000B1935F012F5F3F4F24303105B9F60E944F
:1026F000C36580E090E0AAE7B4E48093B10E9093C4
:10270000B20EA093B30EB093B40E80E090E8ABE3AA
:10271000B5E48093AD0E9093AE0EA093AF0EB09340
:10272000B00E1092B50E1092B60E1092B70E109217
:10273000B80E80E29EE4A0E0B0E08093E90E9093B2
:10274000EA0EA093EB0EB093EC0E10929D0E109239
:102750009E0E10929F0E1092A00E80E090E0A0EAD4
:10276000B1E48093A90E9093AA0EA093AB0EB09300
:10277000AC0E8DEC9CECACECBEE38093A50E90937C
:10278000A60EA093A70EB093A80E80E090E0A0EA5A
:10279000B0E48093A10E9093A20EA093A30EB093E9
:1027A000A40E1092ED0A1092EE0A1092EF0A109207
:1027B000F00A1092E90A1092EA0A1092EB0A1092BB
:1027C000EC0A1092E50A1092E60A1092E70A1092BB
:1027D000E80AC12CD12C80E2E82E82E4F82EC092C7
:1027E000B702D092B802E092B902F092BA0260E069
:1027F00070E080E890E40E94C78F6093B30270930A
:10280000B4028093B5029093B60260E070E08EEB64
:1028100092E40E94D18F6093AF027093B0028093D4
:10282000B1029093B202C092AB02D092AC02E0929D
:10283000AD02F092AE0260E070E080E890E40E94A9
:10284000C78F6093A7027093A8028093A902909308
:10285000AA0260E070E08EEB92E40E94D18F609358
:10286000A3027093A4028093A5029093A6020E94F3
:10287000E38180E090E0A0E8BFE380939F02909323
:10288000A002A093A102B093A202E9EFF2E084912A
:10289000882341F09091C00095FFFCCF8093C60043
:1028A0003196F5CFE7EDF2E08491882341F09091E5
:1028B000C00095FFFCCF8093C6003196F5CF809184
:1028C000C00085FFFCCF8AE08093C600E0960FB67B
:1028D000F894DEBF0FBECDBFDF91CF911F910F9156
:1028E000FF90EF90DF90CF90BF90AF9008951F9230
:1028F0000F920FB60F9211240BB60F922F933F93A6
:102900004F935F936F938F939F93EF93FF93609198
:10291000C6002091A3083091A408C90101968F77C1
:1029200099274091A5085091A6088417950741F072
:10293000F901ED5DF74F60839093A4088093A3089D
:10294000FF91EF919F918F916F915F914F913F9187
:102950002F910F900BBE0F900FBE0F901F901895E8
:102960009A01AB01211581EE38074105510549F166
:1029700082E08093C00060E079E08DE390E00E9407
:102980004F972150310941095109CA01B90122E08B
:1029900030E040E050E00E944F973093C500209314
:1029A000C4008091C10080618093C1008091C1000A
:1029B00088608093C1008091C10080688093C100CD
:1029C00008951092C00020E130E0E7CF2091A508E3
:1029D0003091A6088091A3089091A40882179307CC
:1029E00071F0F901ED5DF74F80812F5F3F4F2F7739
:1029F00033273093A6082093A50890E008958FEF21
:102A00009FEF08958091A5089091A6089093A4083F
:102A10008093A30808954F925F926F927F928F9256
:102A20009F92AF92BF92CF92DF92EF92FF920F935D
:102A30001F93CF93DF93CDB7DEB7A0970FB6F8946F
:102A4000DEBF0FBECDBF5C014115510561057105AB
:102A5000E9F420E030E040E350E060E070E0A09670
:102A60000FB6F894DEBF0FBECDBFDF91CF911F919F
:102A70000F91FF90EF90DF90CF90BF90AF909F901D
:102A80008F907F906F905F904F905BC08E010F5F33
:102A90001F4FC12CD12C76014801422E512C612CA4
:102AA000712C8FEFC81AD80AE80AF80ACB01BA01CC
:102AB000A30192010E942D97CA01F80161938F0131
:102AC000A901BC01411551056105710551F7F1E0FE
:102AD000CF1AD108E108F108F401EC0DFD1D808149
:102AE0008A3010F440E301C047E3480F552747FD03
:102AF0005095652F752F20E030E0C50122D081E090
:102B0000C81AD108E108F108EFEFCE16DE06EE068E
:102B1000FE0611F7A0960FB6F894DEBF0FBECDBF2C
:102B2000DF91CF911F910F91FF90EF90DF90CF90A9
:102B3000BF90AF909F908F907F906F905F904F90DD
:102B400008952115310539F48091C00085FFFCCF2F
:102B50004093C60008952A30310509F424C05BCFA4
:102B60009A01462F552747FD5095652F752FE9CFC0
:102B7000CF93DF93EC0120E030E04DE050E060E0E7
:102B800070E0DFDF20E030E04AE050E060E070E03D
:102B9000CE01DF91CF91D5CF9A01AB01662757FDCA
:102BA0006095762FCECFCF92DF92EF92FF92CF93A8
:102BB000DF93EC016A017B0177FF0FC020E030E07A
:102BC0004DE250E060E070E0BCDFF094E094D0941F
:102BD000C094C11CD11CE11CF11C2AE0B701A60164
:102BE000CE01DF91CF91FF90EF90DF90CF9013CF88
:102BF0002115310539F48091C00085FFFCCF409349
:102C0000C600089508CF9A01462F50E060E070E0BA
:102C1000EFCFCF93DF93EC019A01AB0160E070E05E
:102C2000E7DFCE01DF91CF91A3CF8F929F92AF923A
:102C3000BF92CF92DF92EF92FF921F93CF93DF93D9
:102C4000EC016A017B01122F20E030E0A901C701ED
:102C5000B6010E94709387FF0CC020E030E04DE287
:102C600050E060E070E0CE016CDFF7FAF094F7F826
:102C7000F094B12C60E070E080E09FE3B11641F089
:102C800020E030E040E251E40E947793B394F6CF25
:102C90009B01AC01C701B6010E9497926B017C01B8
:102CA0000E94E4934B015C010E9410949B01AC01D3
:102CB000C701B6010E9496926B017C012AE0B50122
:102CC000A401CE01A8DE112361F0E9E1F8E08191D1
:102CD000882339F09091C00095FFFCCF8093C60007
:102CE000F6CF112319F120E030E040E251E4C701B2
:102CF000B6010E9445966B017C010E94DF934B0157
:102D0000AA2497FCA094BA2CB501A401CE014BDFF4
:102D1000C501B4010E9412949B01AC01C701B60128
:102D20000E9496926B017C011150DBCFDF91CF9115
:102D30001F91FF90EF90DF90CF90BF90AF909F904A
:102D40008F90089572CFFC01659175918591949152
:102D500008957F928F929F92AF92BF92CF92DF920F
:102D6000EF92FF920F931F93CF93DF93EC018C01AF
:102D7000000F111F000F111FF801EB5FF44F1082BD
:102D800011821282138221E13BE04DE05BE069E0B9
:102D90007BE085E09BE00E94FB64C801835D974F68
:102DA000D2DF9E01225E374F5901F90174904E0126
:102DB000880C991C880C991C84010354154F20E041
:102DC00030E040EC5FE30E9445966B017C01672D8B
:102DD000772767FD7095872F972F0E9412949B018C
:102DE000AC01C701B6010E944596F801608371836A
:102DF00082839383F401E65CFD4F6081718182815F
:102E00009381609311027093120280931302909346
:102E1000140220E030E040E752E40E94779330ED66
:102E2000C32E3AE0D32E7B018C0129EC3AE045EC2D
:102E30005AE061EC7AE08DEB9AE00E94C55B0E945B
:102E40001F7FF401EB5FF44F108211821282138214
:102E500021E13BE04DE05BE069E07BE085E09BE069
:102E60000E94FB6494012F5D374F4901C9016BDF5C
:102E7000F50124918E01000F111F000F111F035443
:102E8000154F6B017C01F7FAF094F7F8F094622F7C
:102E9000772767FD7095872F972F0E9412949B01CB
:102EA000AC01C701B6010E944596F80160837183A9
:102EB0008283938320E030E040E752E46091110286
:102EC0007091120280911302909114020E947793E4
:102ED00050EDC52E5AE0D52E7B018C0129EC3AE04D
:102EE00045EC5AE061EC7AE08DEB9AE00E94C55B1C
:102EF0000E941F7FC40127DFF5011491CC0FDD1F55
:102F0000CC0FDD1F9E012354354F59019B01AC01AD
:102F10000E9497926B017C01612F772767FD709566
:102F2000872F972F0E9412949B01AC01C701B60115
:102F30000E944596F5016083718382839383FE012D
:102F4000E65CFD4F20E030E040E05FE360817181AE
:102F5000828193810E9445966093110270931202C0
:102F6000809313029093140220E030E040E752E493
:102F70000E947793F0EDCF2EFAE0DF2E7B018C01DB
:102F800029EC3AE045EC5AE061EC7AE08DEB9AE00E
:102F90000E94C55B0E941F7FCE01875C974FD3DEE6
:102FA0009E012B5F344F79018E010B51154FF801B3
:102FB00020813181428153810E949792F701608381
:102FC000718382839383CE018F5A974FBCDE9E011B
:102FD0002752354F6901F8012081318142815381A7
:102FE0000E949792F6016083718382839383CE015E
:102FF0008B5B974FA8DECA5DDD4FF80120813181E0
:10300000428153810E949792688379838A839B834C
:10301000F70180819181A281B381F5018083918341
:10302000A283B38310921102109212021092130223
:1030300010921402DF91CF911F910F91FF90EF90AA
:10304000DF90CF90BF90AF909F908F907F900C9427
:1030500050768F929F92AF92BF92DF92EF92FF9243
:103060000F931F93CF93DF93CDB7DEB7C456D1092B
:103070000FB6F894DEBF0FBECDBFF42E8E010D5CEF
:103080001F4F22E3F80111922A95E9F7FC012481F0
:10309000233039F0FC0120E030E0E12C80E070E0EA
:1030A0001FC0FC0125812230A9F7EFE1FCE0DC0123
:1030B000169621912D932CE0E332F207D1F7EACF57
:1030C00091E0980F4191A1E0B0E0AC0FBD1FA80FB7
:1030D000B11D4C93223031053CF42F5F3F4F892FB7
:1030E000261737076CF30DC0E4264A3AB1F7A1E082
:1030F000B0E0AC0FBD1FA90FB11D1C9292E0980F5C
:10310000ECCF42E0F41251C0909151022091300175
:1031100025FFFCCF9093360190915202209130010F
:1031200025FFFCCF90933601FE013196AF0190E070
:103130009F01241B350B2817390744F42191309146
:10314000300135FFFCCF20933601F2CF8091300162
:1031500085FFFCCFE09236018AEAE81206C0809132
:10316000300185FFFCCF109236010E9425904B0163
:103170005C018091A40C9091A50C2091A60C30913B
:10318000A70C821B930B8F779927892B09F0C9C055
:103190000E942590681979098A099B096A35710589
:1031A0008105910508F494C1BCC0E3E0FE1287C01C
:1031B000909151022091D00025FFFCCF9093D60032
:1031C000909152022091D00025FFFCCF9093D60021
:1031D000FE013196AF0190E09F01241B350B2817AB
:1031E000390744F421913091D00035FFFCCF209372
:1031F000D600F2CF8091D00085FFFCCFE092D600C0
:10320000FAEAEF1206C08091D00085FFFCCF109241
:10321000D6000E9425904B015C018091290D909170
:103220002A0D20912B0D30912C0D821B930B8F7743
:103230009927892B09F05AC10E94259068197909AC
:103240008A099B096A3571058105910508F04EC10F
:1032500065E070E080E090E00E945490DECF91E362
:103260009E1508F492C08091A40C9091A50C209119
:10327000A60C3091A70C821B930B8F779927892B73
:1032800009F42DC1DD24D394DE0C83E29CE00E947E
:103290000754F801EE0DF11D80830E9425904B012B
:1032A0005C01ED2C0E942590681979098A099B0917
:1032B0006A3071058105910590F2E11066C042E027
:1032C000F41216C083E29CE0CC59DF4F0FB6F8949D
:1032D000DEBF0FBECDBFDF91CF911F910F91FF9049
:1032E000EF90DF90BF90AF909F908F900C942354FD
:1032F00083E0F81208C188EA9CE0CC59DF4F0FB692
:10330000F894DEBF0FBECDBFDF91CF911F910F911B
:10331000FF90EF90DF90BF90AF909F908F900C94B4
:103320008F530E9425904B015C01E12CBBCF809113
:10333000290D90912A0D20912B0D30912C0D821B7F
:10334000930B8F779927892B09F4D6C0DD24D3946A
:10335000DE0C88EA9CE00E947353F801EE0DF11D2B
:1033600080830E9425904B015C01ED2C0E942590EA
:10337000681979098A099B096A30710581059105E7
:1033800008F09BCF21E32E1590F62E2D30E0C901D9
:103390000297F801E80FF91F9080FE01F796E12CE3
:1033A000590141E0A41AB108DE01D296A20FB31F61
:1033B000BF01601B710B4AEA941203C04C91442375
:1033C00011F0A50101C0AC01641775071CF441910F
:1033D000E426EECFEAEA9E1206C0FE01E20FF31FDA
:1033E00042A9442311F0C9010197F801E80FF91F20
:1033F00080818E1164CFFE01319680E090E0D8018B
:10340000A80FB91F4C914193823091051CF04A3AA4
:1034100009F401960196821793078CF389818A3A01
:1034200009F04DCF8A818B3B09F049CF8985811105
:1034300046CF8885823009F042CF8F81823051F0AB
:10344000883009F03CCF8E01065E1F4FCE010A96F0
:103450005C010DC08A8580931F0C8B858093200CA6
:103460008C858093210C8D858093220C28CFF501CB
:10347000E1905F016E2D62956F7070E040E150E069
:1034800082E298E089DB6E2D6F7070E040E150E0E1
:1034900082E298E081DBA016B10649F7F2E0FF1264
:1034A0000AC0ADEDB8E0FE013A9681918D93E01728
:1034B000F107D9F707CF23E0F21225C0ADECB8E051
:1034C000FE013A9681918D93E017F107D9F713CF5A
:1034D00065E070E080E090E00E9454904ACE61E0A8
:1034E00070E080E090E00E945490DCCE0E94259035
:1034F0004B015C01E12C3ACF61E070E080E090E0AC
:103500000E94549033CFCC59DF4F0FB6F894DEBFF2
:103510000FBECDBFDF91CF911F910F91FF90EF9024
:10352000DF90BF90AF909F908F900895CF92DF92E1
:10353000EF92FF920F931F93CF93DF93CDB7DEB738
:10354000EC970FB6F894DEBF0FBECDBFCE0101964B
:103550007C018CE3F70111928A95E9F78091510281
:103560009091D00095FFFCCF8093D60080915202BD
:103570009091D00095FFFCCF8093D600EEE7F2E06B
:103580008091500290E09F012E5732402817390752
:1035900044F481919091D00095FFFCCF8093D600A8
:1035A000EFCF8091D00085FFFCCF83E08093D600E1
:1035B0006EE170E080E090E00E9454906E01FDE3C7
:1035C000CF0ED11C870188EA9CE00E947353F8015A
:1035D000819391938F0168E070E080E090E00E9419
:1035E00054900C151D0579F789819A818A3A9105C5
:1035F00079F48B819C818B3B910551F431E020E083
:1036000089899A89892B09F030E0032F122F02C093
:1036100000E010E0F70111921192EC15FD05D9F7C9
:10362000809151029091300195FFFCCF809336013B
:10363000809152029091300195FFFCCF809336012A
:10364000EEE7F2E08091500290E09F012E57324069
:103650002817390744F481919091300195FFFCCFF0
:1036600080933601EFCF8091300185FFFCCF83E05E
:10367000809336016EE170E080E090E00E9454900B
:1036800083E29CE00E940754F701819391937F01AC
:1036900068E070E080E090E00E945490EC14FD043B
:1036A00079F789819A818A3A910549F48B819C81C5
:1036B0008B3B910521F489899A89892B19F0EBE0DC
:1036C000F3E05EC0EEE1F3E08191882339F0909160
:1036D000C00095FFFCCF8093C600F6CF8091C0005C
:1036E00085FFFCCF8AE08093C60081E080931D0CAB
:1036F000809151029091300195FFFCCF809336016B
:10370000809152029091300195FFFCCF8093360159
:10371000E7E7F2E080914F0290E09F0127573240A7
:103720002817390744F481919091300195FFFCCF1F
:1037300080933601EFCF8091300185FFFCCF8BE085
:10374000809336016EE170E080E090E00E9454903A
:10375000AEE1EA2EF12C83E29CE00E94075468E07F
:1037600070E080E090E00E945490F1E0EF1AF108E0
:1037700091F710C09091C00095FFFCCF8093C600D8
:1037800081918111F7CF8091C00085FFFCCF8AE045
:103790008093C6000130110519F0EFE2F3E05CC040
:1037A000E1E4F3E08191882339F09091C00095FF26
:1037B000FCCF8093C600F6CF8091C00085FFFCCF80
:1037C0008AE08093C60081E080931E0C80915102B4
:1037D0009091D00095FFFCCF8093D600809152024B
:1037E0009091D00095FFFCCF8093D600E7E7F2E000
:1037F00080914F0290E09F012757324028173907E8
:1038000044F481919091D00095FFFCCF8093D60035
:10381000EFCF8091D00085FFFCCF8BE08093D60066
:103820006EE170E080E090E00E9454900EE110E0C4
:1038300088EA9CE00E94735368E070E080E090E0CA
:103840000E9454900150110999F710C09091C00046
:1038500095FFFCCF8093C60081918111F7CF8091B5
:10386000C00085FFFCCF8AE08093C60083E29CE025
:103870000E94235488EA9CE0EC960FB6F894DEBFD1
:103880000FBECDBFDF91CF911F910F91FF90EF90B1
:10389000DF90CF900C948F53CF93DF931F921F92A2
:1038A000CDB7DEB78091DC119091DD119E012F5FC5
:1038B0003F4F009719F4225E314102C0281B390B9B
:1038C0003A83298389819A810F900F90DF91CF915C
:1038D00008952091120930911309243031050CF01C
:1038E0006AC0409114095091150960E6649F9001E7
:1038F000659F300D1124BC01C901845E964F0E9462
:10390000B69AEDE5F8E08491882341F09091C000EB
:1039100095FFFCCF8093C6003196F5CFE3E1F8E048
:103920008491882341F09091C00095FFFCCF809353
:10393000C6003196F5CF809114099091150920E6C3
:10394000289FF001299FF00D1124E45EF64F81912C
:10395000882339F09091C00095FFFCCF8093C6007A
:10396000F6CFE1E1F8E08491882341F09091C00026
:1039700095FFFCCF8093C6003196F5CF8091C000B3
:1039800085FFFCCF8AE08093C60080911409909156
:103990001509019664E070E00E941A97909315094A
:1039A00080931409809112099091130901969093C4
:1039B0001309809312090895209112093091130977
:1039C000243031050CF06AC040911409509115095A
:1039D00060E6649F9001659F300D1124BC01C90110
:1039E000845E964F0E94519AEDE5F8E08491882319
:1039F00041F09091C00095FFFCCF8093C6003196B6
:103A0000F5CFE6E0F8E08491882341F09091C00082
:103A100095FFFCCF8093C6003196F5CF80911409B5
:103A20009091150920E6289FF001299FF00D11249F
:103A3000E45EF64F8191882339F09091C00095FFA4
:103A4000FCCF8093C600F6CFE4E0F8E084918823B1
:103A500041F09091C00095FFFCCF8093C600319655
:103A6000F5CF8091C00085FFFCCF8AE08093C6002F
:103A70008091140990911509019664E070E00E940C
:103A80001A979093150980931409809112099091C7
:103A9000130901969093130980931209089560E029
:103AA00089E20E94F191A09A0895269A2E9808958D
:103AB000EAE0F1E08081806480839FB7F894EBE0D6
:103AC000F1E080818F7B80839FBF08959FB7F8943A
:103AD000EBE0F1E08081806480839FBF0895EAE09D
:103AE000F1E08081806880839FB7F894EBE0F1E09B
:103AF0008081806880839FBF089561E08CE20E948E
:103B0000F19161E087E10E94F19161E089E10E9419
:103B1000F19161E08BE10E94F1913E98469A3D98C7
:103B2000459A3C98449A089580910C0990910D090A
:103B300060E070E001960C94A89780910C09909138
:103B40000D094AE050E060E070E001960C94109995
:103B5000682F772767FD7095209116093091170916
:103B600040E6429FC001439F900D1124845E964F12
:103B70000E94AB9A90930D0980930C0921E0892B48
:103B800009F420E0822F0895E1E5F3E08191882394
:103B900039F09091C00095FFFCCF8093C600F6CF1E
:103BA00008958093D00AE82FF0E0EE0FFF1FEE5C3F
:103BB000FD4F808191819093370280933602089562
:103BC00080E090E0C6D881E090E0C3C8CF93DF9357
:103BD000CDB7DEB728970FB6F894DEBF0FBECDBFC6
:103BE00018861F828CED95E09E838D831C821B823C
:103BF00080E496E09A83898342E0BE01695F7F4F4B
:103C0000CE0105960E94E61242E0BE016D5F7F4F35
:103C1000CE0101960E94E6128F81988597FF09C018
:103C20001092D10A1092D20A1092D30A1092D40A9A
:103C30001BC0853691054CF064E670E0681B790B7B
:103C4000882777FD8095982F05C0BC01882777FDD0
:103C50008095982F0E9412946093D10A7093D20A93
:103C60008093D30A9093D40A20E030E040E251E4FC
:103C70006091D10A7091D20A8091D30A9091D40AAE
:103C80000E9477939B01AC0160911A0270911B0214
:103C900080911C0290911D020E94979260931A02DB
:103CA00070931B0280931C0290931D028B819C8158
:103CB00097FF09C01092D50A1092D60A1092D70A1F
:103CC0001092D80A1BC0853691054CF064E670E06E
:103CD000681B790B882777FD8095982F05C0BC015C
:103CE000882777FD8095982F0E9412946093D50ABB
:103CF0007093D60A8093D70A9093D80A20E030E0D8
:103D000040E251E46091D50A7091D60A8091D70AB9
:103D10009091D80A0E9477939B01AC016091220296
:103D20007091230280912402909125020E94979223
:103D300060932202709323028093240290932502C1
:103D400028960FB6F894DEBF0FBECDBFDF91CF919E
:103D50000895A5DEAADEC3DEABDE40E950ED63E0E8
:103D600070E082E298E00E94B01440E05BE460E022
:103D700070E083E29CE00E94D15340E05BE460E0AD
:103D800070E088EA9CE00E943D53B7DEEEEFF7E07A
:103D90008491882341F09091C00095FFFCCF8093DF
:103DA000C6003196F5CF8091C00085FFFCCF8AE038
:103DB0008093C6008DE598E0FC012491222341F018
:103DC0003091C00035FFFCCF2093C6003196F5CF6F
:103DD00024B720FF14C0E6EFF7E03491332341F01D
:103DE0004091C00045FFFCCF3093C6003196F5CF1F
:103DF0003091C00035FFFCCF3AE03093C60021FF80
:103E000014C0E6EEF7E03491332341F04091C00056
:103E100045FFFCCF3093C6003196F5CF3091C000FE
:103E200035FFFCCF3AE03093C60022FF14C0E5ED29
:103E3000F7E03491332341F04091C00045FFFCCFBF
:103E40003093C6003196F5CF3091C00035FFFCCFDE
:103E50003AE03093C60023FF14C0E5ECF7E034915C
:103E6000332341F04091C00045FFFCCF3093C600A2
:103E70003196F5CF3091C00035FFFCCF3AE030935A
:103E8000C60025FF14C0E5EBF7E02491222341F0A2
:103E90003091C00035FFFCCF2093C6003196F5CF9E
:103EA0002091C00025FFFCCF2AE02093C60014BE5D
:103EB000EDEAF7E02491222341F03091C00035FF74
:103EC000FCCF2093C6003196F5CFE4EAF7E02491C9
:103ED000222341F03091C00035FFFCCF2093C60073
:103EE0003196F5CF2091C00025FFFCCF2AE020932A
:103EF000C600FC012491EDE5F8E0222349F0309161
:103F0000C00035FFFCCF2093C60031962491F5CF39
:103F1000E4E9F7E02491222341F03091C00035FF1D
:103F2000FCCF2093C6003196F5CFEFE7F7E0249160
:103F3000222341F03091C00035FFFCCF2093C60012
:103F40003196F5CFE3E7F7E02491222341F0309159
:103F5000C00035FFFCCF2093C6003196F5CFEFE5CA
:103F6000F7E02491222341F03091C00035FFFCCFCF
:103F70002093C6003196F5CF2091C00025FFFCCFDD
:103F80002AE02093C600E4E5F7E02491222341F0E3
:103F90003091C00035FFFCCF2093C6003196F5CF9D
:103FA000E8E4F7E02491222341F03091C00035FF8E
:103FB000FCCF2093C6003196F5CF2091C00025FF9D
:103FC000FCCF2AE02093C600EBE3F7E02491222304
:103FD00041F03091C00035FFFCCF2093C6003196F0
:103FE000F5CFE2E3F7E02491222341F03091C000C5
:103FF00035FFFCCF2093C6003196F5CF2091C0004D
:1040000025FFFCCF2AE02093C600FC018491EDE55A
:10401000F8E0882349F09091C00095FFFCCF809391
:10402000C60031968491F5CFE3E2F7E084918823CE
:1040300041F09091C00095FFFCCF8093C60031966F
:10404000F5CF2ADC4AE050E0BC0182E298E00E9411
:10405000CC15ECE0F7E08491882341F09091C0000A
:1040600095FFFCCF8093C6003196F5CF4AE050E033
:1040700064E371E082E298E00E94CC158091C00078
:1040800085FFFCCF8AE08093C60010921809109239
:10409000190910921A0910921B090E940C130E9410
:1040A00010880E945F5A0E94977E40DA8FDDE7E514
:1040B000F3E08191882339F09091C00095FFFCCF07
:1040C0008093C600F6CF08954F925F926F927F92D1
:1040D000BF92CF92DF92EF92FF920F931F93CF93F5
:1040E000DF93CDB7DEB76B970FB6F894DEBF0FBE88
:1040F000CDBFC090C908D090CA08E090CB08F0901E
:10410000CC0820E030E040E850E4C701B6010E944E
:10411000739587FD10C020E030E040E850E4C7010F
:10412000B6010E9496926093C9087093CA08809362
:10413000CB089093CC08C090C908D090CA08E090F2
:10414000CB08F090CC0820E030E0A901C701B6010F
:104150000E94739518160CF0BEC08BE0EBEEF2E0F7
:10416000DE01519601900D928A95E1F78E010F5F65
:104170001F4F80E1F80111928A95E9F7B090E508A8
:10418000C701B6010E945D93C090E608D12CE12CD6
:10419000F12CFE2CED2CDC2CCC242091E708C20E57
:1041A000D11CE11CF11C2B2D2F70422E512C612CA7
:1041B000712C320155244424C40CD51CE61CF71C78
:1041C0000E94E4936C0D7D1D8E1D9F1D2B2D207F65
:1041D000280F2093E5087093E6086093E708EDED5B
:1041E000F8E080E09191892798E0EC3EF907D1F75B
:1041F0008093EC08D801EDEDF8E081918D9388E093
:10420000ED3EF807D1F78091ED08811103C081E000
:104210008093ED0842E060914E0280E792E00E94B8
:10422000291842E060914D028AE692E00E94291826
:1042300042E060914C0280E692E00E94291842E040
:1042400060914A0283E592E00E9429188981888F53
:104250008A81898F8B818A8F8C818B8F42E06BE082
:10426000CE0141960E94291887E08F8B8D81888F1F
:104270008E81898F8F818A8F88858B8F42E06BE05A
:10428000CE0141960E94291888E08F8B8985888FFE
:104290008A85898F8B858A8F8C858B8F42E06BE036
:1042A000CE0141960E94291889E08F8B8D85888FD9
:1042B0008E85898F8F858A8F88898B8F42E06BE00E
:1042C000CE0141960E94291842E060914B028AE596
:1042D00092E00E9429186B960FB6F894DEBF0FBECD
:1042E000CDBFDF91CF911F910F91FF90EF90DF90A5
:1042F000CF90BF907F906F905F904F9008954F92B6
:104300005F926F927F92BF92CF92DF92EF92FF9275
:104310000F931F93CF93DF93CDB7DEB76B970FB695
:10432000F894DEBF0FBECDBFC090C508D090C608C0
:10433000E090C708F090C80820E030E040E850E482
:10434000C701B6010E94739587FD10C020E030E0E0
:1043500040E850E4C701B6010E9496926093C508F8
:104360007093C6088093C7089093C808C090C5088A
:10437000D090C608E090C708F090C80820E030E070
:10438000A901C701B6010E94739518160CF0BEC0B2
:104390008BE0EBEEF2E0DE01519601900D928A95F2
:1043A000E1F78E010F5F1F4F80E1F80111928A95AE
:1043B000E9F7B090D508C701B6010E945D93C0909F
:1043C000D608D12CE12CF12CFE2CED2CDC2CCC24AD
:1043D0002091D708C20ED11CE11CF11C2B2D2F708F
:1043E000422E512C612C712C320155244424C40CD2
:1043F000D51CE61CF71C0E94E4936C0D7D1D8E1DE0
:104400009F1D2B2D207F280F2093D5087093D60851
:104410006093D708EDECF8E080E09191892798E06F
:10442000EC3DF907D1F78093DC08D801EDECF8E01A
:1044300081918D9388E0ED3DF807D1F78091ED08EB
:10444000811103C081E08093ED0843E060914E024A
:1044500080E792E00E94291843E060914D028AE6CD
:1044600092E00E94291843E060914C0280E692E0BD
:104470000E94291843E060914A0283E592E00E947D
:1044800029188981888F8A81898F8B818A8F8C8175
:104490008B8F43E06BE0CE0141960E94291887E0A4
:1044A0008F8B8D81888F8E81898F8F818A8F888570
:1044B0008B8F43E06BE0CE0141960E94291888E083
:1044C0008F8B8985888F8A85898F8B858A8F8C854C
:1044D0008B8F43E06BE0CE0141960E94291889E062
:1044E0008F8B8D85888F8E85898F8F858A8F888920
:1044F0008B8F43E06BE0CE0141960E94291843E088
:1045000060914B028AE592E00E9429186B960FB6E3
:10451000F894DEBF0FBECDBFDF91CF911F910F91F9
:10452000FF90EF90DF90CF90BF907F906F905F9063
:104530004F900895882309F459C08091BA088823C0
:10454000A9F12091C9083091CA084091CB08509137
:10455000CC086091C1087091C2088091C308909105
:10456000C4080E9497926093C1087093C208809318
:10457000C3089093C4082091C5083091C6084091A3
:10458000C7085091C8086091BD087091BE0880911D
:10459000BF089091C0080E9497926093BD087093E5
:1045A000BE088093BF089093C00820C08091C908BE
:1045B0009091CA08A091CB08B091CC088093C10813
:1045C0009093C208A093C308B093C4088091C50813
:1045D0009091C608A091C708B091C8088093BD0803
:1045E0009093BE08A093BF08B093C0081092C9086A
:1045F0001092CA081092CB081092CC081092C508ED
:104600001092C6081092C7081092C8080895109218
:10461000D2111092D1111092D0111092CF1110928C
:10462000B5081092B6081092B7081092B808109208
:10463000B1081092B2081092B3081092B40808950D
:104640008091050B9091060BA091070BB091080B80
:104650008093F10A9093F20AA093F30AB093F40ABC
:104660008091090B90910A0BA0910B0BB0910C0B50
:104670008093F50A9093F60AA093F70AB093F80A8C
:1046800080910D0B90910E0BA0910F0BB091100B20
:104690008093F90A9093FA0AA093FB0AB093FC0A5C
:1046A0008091B5089091B608A091B708B091B8086C
:1046B0008093FD0A9093FE0AA093FF0AB093000B2B
:1046C0008091B1089091B208A091B308B091B4085C
:1046D0008093010B9093020BA093030BB093040BF8
:1046E00008950E94259060930609709307098093AE
:1046F000080990930909E0911609F0911709E85EFD
:10470000F64F8081811120C0ECE8F3E0819188238D
:1047100039F09091C00095FFFCCF8093C600F6CF92
:10472000E4E9F3E08491882341F09091C00095FF83
:10473000FCCF8093C6003196F5CF8091C00085FFF5
:10474000FCCF8AE08093C600089582E298E00E9440
:104750000215E7E9F3E08491882341F09091C000CD
:1047600095FFFCCF8093C6003196F5CF4091A10A0A
:104770005091A20A6091A30A7091A40A4F5F5F4F03
:104780006F4F7F4F2AE030E082E298E00E94A1154F
:104790008091C00085FFFCCF8AE08093C600A1CF46
:1047A0002F923F924F925F926F927F928F929F9241
:1047B000AF92BF92CF92DF92EF92FF920F931F932F
:1047C000CF93DF93CDB7DEB76E970FB6F894DEBF09
:1047D0000FBECDBFF0E67F2E44244394EE24EA942E
:1047E000FE2CB4E0CB2ED12C1CEA212E15E0312E6C
:1047F0000AE0602E82E2A82E86E0B82E8091A308FF
:104800009091A4082091A5083091A608821B930BD3
:104810008F779927892B09F48FC280911209909183
:10482000130904970CF088C2809106029091070248
:10483000019621F41092070210920602809106025E
:1048400090910702892B31F482E298E00E94E614ED
:10485000809311098091AF0881110AC0409111091C
:1048600000910F09109110094A3009F054C022C07C
:10487000E2EDF6E08491882341F09091C00095FF2D
:10488000FCCF8093C6003196F5CF40E050E06091B8
:10489000110982E298E00E94B015E0EDF6E0849103
:1048A0008823E1F29091C00095FFFCCF8093C60071
:1048B0003196F5CF20E030E040E85FE36091A70853
:1048C0007091A8088091A9089091AA080E949792D7
:1048D0006093A7087093A8088093A9089093AA08EA
:1048E00080911B0B882301F120E030E040E85FE37A
:1048F000609108027091090280910A0290910B0266
:104900000E949792609308027093090280930A02B2
:1049100090930B0209C04D3039F04A3309F090C131
:1049200080910E0981118CC1F0920702E09206027B
:104930000115110509F481C180911409909115099F
:10494000789E4001799E900C1124F401E00FF11F34
:10495000E45EF64F108220910E09211169C1FC011D
:10496000E85EF64F10828401045E164F6EE470E03C
:10497000C8010E94AB9A009709F4A0C090930D095A
:1049800080930C09801B910B880D991D4AE050E023
:1049900060E070E0835E964F0E9410996093A50AD4
:1049A0007093A60A8093A70A9093A80A0091A10A7F
:1049B0001091A20A2091A30A3091A40A0F5F1F4F01
:1049C0002F4F3F4F80901409909015096017710781
:1049D0008207930709F456C1789CC001799C900D19
:1049E00011246BEC76E0845E964F0E94709A892BBE
:1049F00009F048C1E3E6F8E08491882341F0909102
:104A0000C00095FFFCCF8093C6003196F5CFE8E952
:104A1000F6E08491882341F09091C00095FFFCCF8F
:104A20008093C6003196F5CF4091A10A5091A20A19
:104A30006091A30A7091A40A2AE030E082E298E033
:104A40000E94A1158091C00085FFFCCF32C09093D9
:104A50000D0980930C0988199909800F911F60E056
:104A600070E0835E964F0E94A8970E94DF93252DE9
:104A700030E02617370709F45DC0E3E6F8E08491DB
:104A800081114AC1E9E7F6E0849181114DC140915D
:104A9000A10A5091A20A6091A30A7091A40A2AE087
:104AA00030E082E298E00E94A1158091C00085FF6D
:104AB000FCCF8AE08093C60048DE37C06AE270E02F
:104AC000C8010E94AB9A892B09F444C0E3E6F8E0E0
:104AD0008491882341F09091C00095FFFCCF809392
:104AE000C6003196F5CFE5E2F6E08491882341F0E7
:104AF0009091C00095FFFCCF8093C6003196F5CF12
:104B00004091A10A5091A20A6091A30A7091A40A4F
:104B10002AE030E082E298E00E94A1158091C00076
:104B200085FFFCCF8AE08093C60010921009109296
:104B30000F09A1C28091A50A9091A60AA091A70A87
:104B4000B091A80A8093A10A9093A20AA093A30A05
:104B5000B093A40A8091140990911509789E800160
:104B6000799E100D11249801245E364F490167E4A7
:104B700070E0C9010E94AB9A009709F444C0909379
:104B80000D0980930C0988199909800F911F60E025
:104B900070E0835E964F0E94A8970E94DF93643076
:104BA000710588F58091F008811118C080911B0B68
:104BB000811129C0F5018491E2E2F6E0882349F0F1
:104BC0009091C00095FFFCCF8093C60031968491F0
:104BD000F5CF8091C00085FFFCCF13C0F101849117
:104BE000ECEAF5E0882349F09091C00095FFFCCFF6
:104BF0008093C60031968491F5CF8091C00085FFE7
:104C0000FCCF6092C600809114099091150901961D
:104C1000B6010E941A979093150980931409809108
:104C20001209909113090196909313098093120928
:104C30001092100910920F09E1CD10920E091BC2BB
:104C40000F3511050CF070CE4B3311F440920E0964
:104C500080910E098111D2CD80911409909115098E
:104C600098012F5F3F4F3093100920930F09789ED2
:104C7000F001799EF00D1124E00FF11FE45EF64F74
:104C80004083BCCD789C8001799C100D1124C80113
:104C9000845E964F4C016AE270E00E94AB9A0097E6
:104CA00069F5E3E6F8E08491882341F09091C00033
:104CB00095FFFCCF8093C6003196F5CFEFE4F6E088
:104CC0008491882341F09091C00095FFFCCF8093A0
:104CD000C6003196F5CF4091A10A5091A20A609189
:104CE000A30A7091A40A2AE030E082E298E00E94D0
:104CF000A1158091C00085FFFCCFDBCE20E0512CB8
:104D0000F801E20FF11DE45EF64F30813A3209F40A
:104D10009ECE2F5F5326F4CF9091C00095FFFCCF1D
:104D20008093C6003196ABCE9091C00095FFFCCF2A
:104D30008093C6003196A8CE80911D0B882309F47C
:104D40009AC180910F0990911009892B09F093C1A4
:104D50006CE3C62ED12CE12CF12C70E1472E7EE0C5
:104D6000572E612C712CE5E62E2EE5E03E2E8E01AD
:104D70000F5F1F4F4091120C5091130C6091140C57
:104D80007091150C80910A0C90910B0CA0910C0C59
:104D9000B0910D0C481759076A077B0708F06BC1E3
:104DA000809112099091130904970CF064C18091CD
:104DB000F70B9091F80BA091F90BB091FA0B80933F
:104DC000120C9093130CA093140CB093150C8FEE4F
:104DD0009BE00E94936A5C01809311098091B00866
:104DE000882311F1EEE8F5E08491882341F0909159
:104DF000C00095FFFCCF8093C6003196F5CF40E010
:104E000050E06091110982E298E00E94B015ECE850
:104E1000F5E08491882341F09091C00095FFFCCF8C
:104E20008093C6003196F5CF809111098A3021F523
:104E300020E030E040E85FE36091AB087091AC089F
:104E40008091AD089091AE080E9497926093AB0854
:104E50007093AC088093AD089093AE0861E08DE04C
:104E60000E942A9268EE73E080E090E00E945490E5
:104E700060E08DE00E942A92609111096A3099F0F9
:104E80006D3089F06A3321F480910E09882359F03E
:104E900080910F09909110098F35910524F4AB2072
:104EA000A09409F0C8C04091120C5091130C60916D
:104EB000140C7091150C80910A0C90910B0CA09120
:104EC0000C0CB0910D0C481759076A077B0708F4C2
:104ED0007CC0E9E7F5E08491882341F09091C0001F
:104EE00095FFFCCF8093C6003196F5CF8091C0002E
:104EF00085FFFCCFFAE0F093C6000E9425906093F6
:104F0000F2087093F3088093F4089093F50880906A
:104F1000F6089090F708A090F808B090F908681982
:104F200079098A099B0928EE33E040E050E00E94AD
:104F30002D9749015A01CA01B901A70196010E94A2
:104F40002D97CA01B901A70196010E942D977F9361
:104F50006F93C501B401A30192010E942D973F9365
:104F60002F933F922F921F930F930E94DA9AEDE5B1
:104F7000F8E084910FB6F894DEBF0FBECDBF882352
:104F800049F09091C00095FFFCCF8093C600319608
:104F90008491F5CFF8018191882339F09091C00078
:104FA00095FFFCCF8093C600F6CF8091C00085FFAF
:104FB000FCCF3AE03093C6008BE19BE00E9489125F
:104FC00061E08BE19BE00E94801120910F093091FC
:104FD00010092115310509F430CE80911409909102
:104FE000150940E6489FF001499FF00D1124E20F9A
:104FF000F31FE45EF64F1082FC01E85EF64F21E0FD
:10500000208320911209309113092F5F3F4F309375
:10501000130920931209019664E070E00E941A9728
:10502000909315098093140910920E09109210099B
:1050300010920F099FCE6B3319F421E020930E09D3
:1050400020910E09211196CE209114093091150955
:10505000AC014F5F5F4F5093100940930F0940E63A
:10506000429FF001439FF00D1124E80FF91FE45E09
:10507000F64F60837FCE6E960FB6F894DEBF0FBEFC
:10508000CDBFDF91CF911F910F91FF90EF90DF90F7
:10509000CF90BF90AF909F908F907F906F905F90D8
:1050A0004F903F902F9008958F929F92AF92BF9212
:1050B000CF92DF92EF92FF920F931F93CF93DF93E4
:1050C0009FEBE92E97E0F92E05E01BE0CDEBDAE04F
:1050D00027E1C22E2BE0D22EF70181917F010E94A1
:1050E000A81D882319F10E94941D4B015C01F60153
:1050F0008081811103C060919C0A01C061E070E071
:1051000080E090E00E941294F80120813181428178
:1051100053810E9445969B01AC01C501B4010E94D8
:105120009792688379838A839B8309C0F801808181
:105130009181A281B38188839983AA83BB830C5F09
:105140001F4F2496FFEFCF1ADF0A83ECE81687E0A3
:10515000F80611F686E40E94A81D8823D9F00E9463
:10516000941D6B017C016093AD0A7093AE0A80932D
:10517000AF0A9093B00A20E030E0A9010E94739535
:10518000181644F4C0921102D0921202E092130257
:10519000F0921402DF91CF911F910F91FF90EF9049
:1051A000DF90CF90BF90AF909F908F9008957CDF5D
:1051B00089E40E94A81D882359F00E94941D6093E1
:1051C000B10A7093B20A8093B30A9093B40A08C0EC
:1051D0001092B10A1092B20A1092B30A1092B40A55
:1051E0008AE40E94A81D882359F00E94941D6093B0
:1051F000B50A7093B60A8093B70A9093B80A0895D7
:105200001092B50A1092B60A1092B70A1092B80A14
:1052100008950895CF92DF92EF92FF920F931F931C
:105220008091D00A811125C02091C90A3091CA0A03
:105230004091CB0A5091CC0A6091C9087091CA087C
:105240008091CB089091CC080E9497922091110BED
:105250003091120B4091130B5091140B0E949692B7
:105260006093C9087093CA088093CB089093CC08C8
:1052700026C0813021F52091C90A3091CA0A409197
:10528000CB0A5091CC0A6091C5087091C6088091F4
:10529000C7089091C8080E9497922091110B3091F5
:1052A000120B4091130B5091140B0E949692609335
:1052B000C5087093C6088093C7089093C8080E94D9
:1052C00025906093060970930709809308099093CD
:1052D00009092091BD0A3091BE0A4091BF0A509140
:1052E000C00A6091050B7091060B8091070B90919D
:1052F000080B0E947093811179C02091C10A3091EE
:10530000C20A4091C30A5091C40A6091090B70917E
:105310000A0B80910B0B90910C0B0E9470938111E2
:1053200065C020E030E040E752E4609111027091E6
:10533000120280911302909114020E94779330ED33
:10534000C32E3AE0D32E7B018C0129EC3AE045ECE8
:105350005AE061EC7AE08DEB9AE00E94C55B8091A7
:10536000BD0A9091BE0AA091BF0AB091C00A809375
:10537000050B9093060BA093070BB093080B80913D
:10538000C10A9091C20AA091C30AB091C40A809345
:10539000090B90930A0BA0930B0BB0930C0B80910D
:1053A000C50A9091C60AA091C70AB091C80A809315
:1053B0000D0B90930E0BA0930F0BB093100B8091DD
:1053C000C90A9091CA0AA091CB0AB091CC0A8093E5
:1053D000110B9093120BA093130BB093140B1F910E
:1053E0000F91FF90EF90DF90CF9008956091380279
:1053F00070913902882777FD8095982F0E9412942A
:105400002091110230911202409113025091140226
:105410000E94459620E030E040E752E40E947793F6
:1054200020E030E048EC52E488CF8F929F92AF9218
:10543000BF92CF92DF92EF92FF924B015C01690124
:105440007A0120E030E0A90160910D0B70910E0B04
:1054500080910F0B9091100B0E9445969B01AC011F
:10546000C501B4010E9497926093C50A7093C60A61
:105470008093C70A9093C80AC0921102D092120278
:10548000E0921302F0921402FF90EF90DF90CF9021
:10549000BF90AF909F908F90BDCECF92DF92EF9252
:1054A000FF9269017A0120910D0B30910E0B409112
:1054B0000F0B5091100B0E9497926093C50A709346
:1054C000C60A8093C70A9093C80AC0921102D0926C
:1054D0001202E0921302F0921402FF90EF90DF901C
:1054E000CF9098CECF93DF9382E090E00E94A916F0
:1054F000C2E4D2E0288139814A815B8160E070E0BA
:105500008AEF93E4CADF288139814A815B8160E0B8
:1055100070E08AEF93ECDF91CF91BFCF4F925F9213
:105520006F927F928F929F92AF92BF92CF92DF92B3
:10553000EF92FF920F931F932B013C0149015A01F7
:105540006701780120E030E0A9016091050B7091BE
:10555000060B8091070B9091080B0E9445969B01CA
:10556000AC01C301B2010E9497926093BD0A70938F
:10557000BE0A8093BF0A9093C00A20E030E0A901E0
:105580006091090B70910A0B80910B0B90910C0BA1
:105590000E9445969B01AC01C501B4010E949792FF
:1055A0006093C10A7093C20A8093C30A9093C40A9D
:1055B000C0921102D0921202E0921302F0921402F1
:1055C0001F910F91FF90EF90DF90CF90BF90AF9021
:1055D0009F908F907F906F905F904F901BCECF9257
:1055E000DF92EF92FF9269017A012091050B3091D1
:1055F000060B4091070B5091080B0E949792609305
:10560000BD0A7093BE0A8093BF0A9093C00AC092ED
:105610001102D0921202E0921302F0921402FF9053
:10562000EF90DF90CF90F6CDCF92DF92EF92FF9286
:1056300069017A012091090B30910A0B40910B0B03
:1056400050910C0B0E9497926093C10A7093C20A0A
:105650008093C30A9093C40AC0921102D09212029E
:10566000E0921302F0921402FF90EF90DF90CF903F
:10567000D1CDCF93DF9380E090E00E94A91682E025
:1056800090E00E94A91620E030E04AEF54E460E088
:1056900070E086E992E4A3DF20E030E04AEF54E4D2
:1056A00060E070E088E493E4BFDFC2E4D2E02881E8
:1056B00039814A815B8160E070E088E493E4EDDE4B
:1056C000288139814A815B8160E070E08CEB92EC4B
:1056D000DF91CF91E2CEEF92FF920F931F9380E084
:1056E00090E00E94A91681E090E00E94A91620E0B7
:1056F00030E04AEF54E460E070E086E993E46FDF65
:1057000020E030E04AEF54E460E070E086E993E4A2
:105710008BDF20E030E04AEF54E460E070E086E99F
:1057200093EC5DDF20E030E04AEF54E460E070E0AD
:1057300086E993EC79DFE12CF12C0AEF14E420E008
:1057400030E040E252E4CA01B901E8DEA801970165
:1057500060E070E088E492E442DFA801970160E035
:1057600070E088E492E460DFA801970160E070E0F7
:1057700088E492EC34DFA801970160E070E088E4EF
:1057800092EC1F910F91FF90EF904ECFCF92DF924E
:10579000EF92FF9269017A012091110B3091120B67
:1057A0004091130B5091140B0E9497926093C90A79
:1057B0007093CA0A8093CB0A9093CC0AC0921102CC
:1057C000D0921202E0921302F0921402FF90EF9036
:1057D000DF90CF901FCDCF93C091D00A20E030E072
:1057E000A9016091C9087091CA088091CB08909175
:1057F000CC080E9473951816ACF480E00E94D11D6D
:105800008091BC08811105C020E030E04AE754E4F3
:1058100004C020E030E048E452E460E070E080E85A
:1058200090ECB4DF20E030E0A9016091C5087091F0
:10583000C6088091C7089091C8080E9473951816F1
:10584000ACF481E00E94D11D8091BB08811105C09C
:1058500020E030E04AE754E404C020E030E048E4CF
:1058600052E460E070E080E890EC90DF8C2FCF9104
:105870000C94D11DEBE6F3E08191882339F09091EF
:10588000C00095FFFCCF8093C600F6CF0E94967FA4
:1058900020E030E0A9016091C9087091CA088091A8
:1058A000CB089091CC080E94739518167CF020E0EC
:1058B00030E0A9016091C5087091C6088091C708C1
:1058C0009091C8080E947395181654F420E030E0B7
:1058D00048E453E460E070E080E391E4DEDD7BDFE8
:1058E0000E9422899091330D8091320D981361C0EE
:1058F00061E08AE20E942A9264E670E080E090E033
:105900000E94549060E08AE20E942A9264E670E06D
:1059100080E090E00E94549061E08AE20E942A9226
:1059200064E670E080E090E00E94549060E08AE2DB
:105930000E942A9264E670E080E090E00E94549019
:105940005F9A8A9A9FB7F89480910801816080934A
:1059500008019FBF479A129A68EE73E080E090E0DA
:105960000E945490F894E3E6F8E08491882341F093
:105970009091C00095FFFCCF8093C6003196F5CF83
:10598000E6E4F5E08491882341F09091C00095FF12
:10599000FCCF8093C6003196F5CF8091C00085FF83
:1059A000FCCF8AE08093C6000E94661DE0E0F0E034
:1059B00019949FB7F89480910B01806880930B0134
:1059C0009FBF6AEF70E080E090E00E9454909FB724
:1059D000F89480910B018F7780930B019FBF6AEF42
:1059E00070E080E090E00E9454907CCFCF93DF93F2
:1059F000D62FC091D00A8823A9F080E00E94D11D43
:105A00008091BC08811105C020E030E04AE754E4F1
:105A100004C020E030E048E452E460E070E080E858
:105A200090E4B4DEDD23A9F081E00E94D11D8091D5
:105A3000BB08811105C020E030E04AE754E404C00F
:105A400020E030E048E452E460E070E080E890E478
:105A50009DDE8C2FDF91CF910C94D11DAF92BF9220
:105A6000CF92DF92EF92FF920F931F93CF93DF932A
:105A7000D82F2091B50A3091B60A4091B70A5091BB
:105A8000B80A6091B10A7091B20A8091B30A9091FC
:105A9000B40A0E948095C62F172F082FF92E609107
:105AA000380270913902882777FD8095982F0E94DF
:105AB00012942091110230911202409113025091E0
:105AC00014020E94459620E030E040E752E40E9434
:105AD000779320E030E048EC52E40E9477932091E5
